{
  "_format": "hh3-artifact-1",
  "contractName": "FoRToken",
  "sourceName": "contracts/FoRToken.sol",
  "abi": [
    {
      "inputs": [
        {
          "internalType": "uint256",
          "name": "initialSupply",
          "type": "uint256"
        },
        {
          "internalType": "string",
          "name": "name",
          "type": "string"
        },
        {
          "internalType": "string",
          "name": "symbol",
          "type": "string"
        }
      ],
      "stateMutability": "nonpayable",
      "type": "constructor"
    },
    {
      "inputs": [],
      "name": "AccessControlBadConfirmation",
      "type": "error"
    },
    {
      "inputs": [
        {
          "internalType": "address",
          "name": "account",
          "type": "address"
        },
        {
          "internalType": "bytes32",
          "name": "neededRole",
          "type": "bytes32"
        }
      ],
      "name": "AccessControlUnauthorizedAccount",
      "type": "error"
    },
    {
      "inputs": [],
      "name": "AlreadyAllowListed",
      "type": "error"
    },
    {
      "inputs": [],
      "name": "ECDSAInvalidSignature",
      "type": "error"
    },
    {
      "inputs": [
        {
          "internalType": "uint256",
          "name": "length",
          "type": "uint256"
        }
      ],
      "name": "ECDSAInvalidSignatureLength",
      "type": "error"
    },
    {
      "inputs": [
        {
          "internalType": "bytes32",
          "name": "s",
          "type": "bytes32"
        }
      ],
      "name": "ECDSAInvalidSignatureS",
      "type": "error"
    },
    {
      "inputs": [
        {
          "internalType": "address",
          "name": "spender",
          "type": "address"
        },
        {
          "internalType": "uint256",
          "name": "allowance",
          "type": "uint256"
        },
        {
          "internalType": "uint256",
          "name": "needed",
          "type": "uint256"
        }
      ],
      "name": "ERC20InsufficientAllowance",
      "type": "error"
    },
    {
      "inputs": [
        {
          "internalType": "address",
          "name": "sender",
          "type": "address"
        },
        {
          "internalType": "uint256",
          "name": "balance",
          "type": "uint256"
        },
        {
          "internalType": "uint256",
          "name": "needed",
          "type": "uint256"
        }
      ],
      "name": "ERC20InsufficientBalance",
      "type": "error"
    },
    {
      "inputs": [
        {
          "internalType": "address",
          "name": "approver",
          "type": "address"
        }
      ],
      "name": "ERC20InvalidApprover",
      "type": "error"
    },
    {
      "inputs": [
        {
          "internalType": "address",
          "name": "receiver",
          "type": "address"
        }
      ],
      "name": "ERC20InvalidReceiver",
      "type": "error"
    },
    {
      "inputs": [
        {
          "internalType": "address",
          "name": "sender",
          "type": "address"
        }
      ],
      "name": "ERC20InvalidSender",
      "type": "error"
    },
    {
      "inputs": [
        {
          "internalType": "address",
          "name": "spender",
          "type": "address"
        }
      ],
      "name": "ERC20InvalidSpender",
      "type": "error"
    },
    {
      "inputs": [
        {
          "internalType": "uint256",
          "name": "deadline",
          "type": "uint256"
        }
      ],
      "name": "ERC2612ExpiredSignature",
      "type": "error"
    },
    {
      "inputs": [
        {
          "internalType": "address",
          "name": "signer",
          "type": "address"
        },
        {
          "internalType": "address",
          "name": "owner",
          "type": "address"
        }
      ],
      "name": "ERC2612InvalidSigner",
      "type": "error"
    },
    {
      "inputs": [
        {
          "internalType": "address",
          "name": "account",
          "type": "address"
        },
        {
          "internalType": "uint256",
          "name": "currentNonce",
          "type": "uint256"
        }
      ],
      "name": "InvalidAccountNonce",
      "type": "error"
    },
    {
      "inputs": [],
      "name": "InvalidShortString",
      "type": "error"
    },
    {
      "inputs": [],
      "name": "InvalidSignature",
      "type": "error"
    },
    {
      "inputs": [
        {
          "internalType": "address",
          "name": "account",
          "type": "address"
        }
      ],
      "name": "NotAllowListed",
      "type": "error"
    },
    {
      "inputs": [],
      "name": "SignatureExpired",
      "type": "error"
    },
    {
      "inputs": [
        {
          "internalType": "string",
          "name": "str",
          "type": "string"
        }
      ],
      "name": "StringTooLong",
      "type": "error"
    },
    {
      "anonymous": false,
      "inputs": [
        {
          "indexed": true,
          "internalType": "address",
          "name": "account",
          "type": "address"
        }
      ],
      "name": "AllowListAdded",
      "type": "event"
    },
    {
      "anonymous": false,
      "inputs": [
        {
          "indexed": true,
          "internalType": "address",
          "name": "account",
          "type": "address"
        }
      ],
      "name": "AllowListRemoved",
      "type": "event"
    },
    {
      "anonymous": false,
      "inputs": [
        {
          "indexed": true,
          "internalType": "address",
          "name": "owner",
          "type": "address"
        },
        {
          "indexed": true,
          "internalType": "address",
          "name": "spender",
          "type": "address"
        },
        {
          "indexed": false,
          "internalType": "uint256",
          "name": "value",
          "type": "uint256"
        }
      ],
      "name": "Approval",
      "type": "event"
    },
    {
      "anonymous": false,
      "inputs": [],
      "name": "EIP712DomainChanged",
      "type": "event"
    },
    {
      "anonymous": false,
      "inputs": [
        {
          "indexed": true,
          "internalType": "bytes32",
          "name": "role",
          "type": "bytes32"
        },
        {
          "indexed": true,
          "internalType": "bytes32",
          "name": "previousAdminRole",
          "type": "bytes32"
        },
        {
          "indexed": true,
          "internalType": "bytes32",
          "name": "newAdminRole",
          "type": "bytes32"
        }
      ],
      "name": "RoleAdminChanged",
      "type": "event"
    },
    {
      "anonymous": false,
      "inputs": [
        {
          "indexed": true,
          "internalType": "bytes32",
          "name": "role",
          "type": "bytes32"
        },
        {
          "indexed": true,
          "internalType": "address",
          "name": "account",
          "type": "address"
        },
        {
          "indexed": true,
          "internalType": "address",
          "name": "sender",
          "type": "address"
        }
      ],
      "name": "RoleGranted",
      "type": "event"
    },
    {
      "anonymous": false,
      "inputs": [
        {
          "indexed": true,
          "internalType": "bytes32",
          "name": "role",
          "type": "bytes32"
        },
        {
          "indexed": true,
          "internalType": "address",
          "name": "account",
          "type": "address"
        },
        {
          "indexed": true,
          "internalType": "address",
          "name": "sender",
          "type": "address"
        }
      ],
      "name": "RoleRevoked",
      "type": "event"
    },
    {
      "anonymous": false,
      "inputs": [
        {
          "indexed": true,
          "internalType": "address",
          "name": "from",
          "type": "address"
        },
        {
          "indexed": true,
          "internalType": "address",
          "name": "to",
          "type": "address"
        },
        {
          "indexed": false,
          "internalType": "uint256",
          "name": "value",
          "type": "uint256"
        }
      ],
      "name": "Transfer",
      "type": "event"
    },
    {
      "inputs": [],
      "name": "ADD_TO_ALLOWLIST_TYPEHASH",
      "outputs": [
        {
          "internalType": "bytes32",
          "name": "",
          "type": "bytes32"
        }
      ],
      "stateMutability": "view",
      "type": "function"
    },
    {
      "inputs": [],
      "name": "ADMIN_ROLE",
      "outputs": [
        {
          "internalType": "bytes32",
          "name": "",
          "type": "bytes32"
        }
      ],
      "stateMutability": "view",
      "type": "function"
    },
    {
      "inputs": [],
      "name": "DEFAULT_ADMIN_ROLE",
      "outputs": [
        {
          "internalType": "bytes32",
          "name": "",
          "type": "bytes32"
        }
      ],
      "stateMutability": "view",
      "type": "function"
    },
    {
      "inputs": [],
      "name": "DOMAIN_SEPARATOR",
      "outputs": [
        {
          "internalType": "bytes32",
          "name": "",
          "type": "bytes32"
        }
      ],
      "stateMutability": "view",
      "type": "function"
    },
    {
      "inputs": [
        {
          "internalType": "address",
          "name": "account",
          "type": "address"
        }
      ],
      "name": "addToAllowList",
      "outputs": [],
      "stateMutability": "nonpayable",
      "type": "function"
    },
    {
      "inputs": [
        {
          "internalType": "address",
          "name": "account",
          "type": "address"
        },
        {
          "internalType": "uint256",
          "name": "deadline",
          "type": "uint256"
        },
        {
          "internalType": "bytes",
          "name": "signature",
          "type": "bytes"
        }
      ],
      "name": "addToAllowListWithSignature",
      "outputs": [],
      "stateMutability": "nonpayable",
      "type": "function"
    },
    {
      "inputs": [
        {
          "internalType": "address",
          "name": "owner",
          "type": "address"
        },
        {
          "internalType": "address",
          "name": "spender",
          "type": "address"
        }
      ],
      "name": "allowance",
      "outputs": [
        {
          "internalType": "uint256",
          "name": "",
          "type": "uint256"
        }
      ],
      "stateMutability": "view",
      "type": "function"
    },
    {
      "inputs": [
        {
          "internalType": "address",
          "name": "spender",
          "type": "address"
        },
        {
          "internalType": "uint256",
          "name": "value",
          "type": "uint256"
        }
      ],
      "name": "approve",
      "outputs": [
        {
          "internalType": "bool",
          "name": "",
          "type": "bool"
        }
      ],
      "stateMutability": "nonpayable",
      "type": "function"
    },
    {
      "inputs": [
        {
          "internalType": "address",
          "name": "account",
          "type": "address"
        }
      ],
      "name": "balanceOf",
      "outputs": [
        {
          "internalType": "uint256",
          "name": "",
          "type": "uint256"
        }
      ],
      "stateMutability": "view",
      "type": "function"
    },
    {
      "inputs": [],
      "name": "decimals",
      "outputs": [
        {
          "internalType": "uint8",
          "name": "",
          "type": "uint8"
        }
      ],
      "stateMutability": "view",
      "type": "function"
    },
    {
      "inputs": [],
      "name": "eip712Domain",
      "outputs": [
        {
          "internalType": "bytes1",
          "name": "fields",
          "type": "bytes1"
        },
        {
          "internalType": "string",
          "name": "name",
          "type": "string"
        },
        {
          "internalType": "string",
          "name": "version",
          "type": "string"
        },
        {
          "internalType": "uint256",
          "name": "chainId",
          "type": "uint256"
        },
        {
          "internalType": "address",
          "name": "verifyingContract",
          "type": "address"
        },
        {
          "internalType": "bytes32",
          "name": "salt",
          "type": "bytes32"
        },
        {
          "internalType": "uint256[]",
          "name": "extensions",
          "type": "uint256[]"
        }
      ],
      "stateMutability": "view",
      "type": "function"
    },
    {
      "inputs": [
        {
          "internalType": "bytes32",
          "name": "role",
          "type": "bytes32"
        }
      ],
      "name": "getRoleAdmin",
      "outputs": [
        {
          "internalType": "bytes32",
          "name": "",
          "type": "bytes32"
        }
      ],
      "stateMutability": "view",
      "type": "function"
    },
    {
      "inputs": [
        {
          "internalType": "bytes32",
          "name": "role",
          "type": "bytes32"
        },
        {
          "internalType": "address",
          "name": "account",
          "type": "address"
        }
      ],
      "name": "grantRole",
      "outputs": [],
      "stateMutability": "nonpayable",
      "type": "function"
    },
    {
      "inputs": [
        {
          "internalType": "bytes32",
          "name": "role",
          "type": "bytes32"
        },
        {
          "internalType": "address",
          "name": "account",
          "type": "address"
        }
      ],
      "name": "hasRole",
      "outputs": [
        {
          "internalType": "bool",
          "name": "",
          "type": "bool"
        }
      ],
      "stateMutability": "view",
      "type": "function"
    },
    {
      "inputs": [
        {
          "internalType": "address",
          "name": "account",
          "type": "address"
        }
      ],
      "name": "isAllowListed",
      "outputs": [
        {
          "internalType": "bool",
          "name": "",
          "type": "bool"
        }
      ],
      "stateMutability": "view",
      "type": "function"
    },
    {
      "inputs": [],
      "name": "name",
      "outputs": [
        {
          "internalType": "string",
          "name": "",
          "type": "string"
        }
      ],
      "stateMutability": "view",
      "type": "function"
    },
    {
      "inputs": [
        {
          "internalType": "address",
          "name": "owner",
          "type": "address"
        }
      ],
      "name": "nonces",
      "outputs": [
        {
          "internalType": "uint256",
          "name": "",
          "type": "uint256"
        }
      ],
      "stateMutability": "view",
      "type": "function"
    },
    {
      "inputs": [
        {
          "internalType": "address",
          "name": "owner",
          "type": "address"
        },
        {
          "internalType": "address",
          "name": "spender",
          "type": "address"
        },
        {
          "internalType": "uint256",
          "name": "value",
          "type": "uint256"
        },
        {
          "internalType": "uint256",
          "name": "deadline",
          "type": "uint256"
        },
        {
          "internalType": "uint8",
          "name": "v",
          "type": "uint8"
        },
        {
          "internalType": "bytes32",
          "name": "r",
          "type": "bytes32"
        },
        {
          "internalType": "bytes32",
          "name": "s",
          "type": "bytes32"
        }
      ],
      "name": "permit",
      "outputs": [],
      "stateMutability": "nonpayable",
      "type": "function"
    },
    {
      "inputs": [
        {
          "internalType": "address",
          "name": "account",
          "type": "address"
        }
      ],
      "name": "removeFromAllowList",
      "outputs": [],
      "stateMutability": "nonpayable",
      "type": "function"
    },
    {
      "inputs": [
        {
          "internalType": "bytes32",
          "name": "role",
          "type": "bytes32"
        },
        {
          "internalType": "address",
          "name": "callerConfirmation",
          "type": "address"
        }
      ],
      "name": "renounceRole",
      "outputs": [],
      "stateMutability": "nonpayable",
      "type": "function"
    },
    {
      "inputs": [
        {
          "internalType": "bytes32",
          "name": "role",
          "type": "bytes32"
        },
        {
          "internalType": "address",
          "name": "account",
          "type": "address"
        }
      ],
      "name": "revokeRole",
      "outputs": [],
      "stateMutability": "nonpayable",
      "type": "function"
    },
    {
      "inputs": [
        {
          "internalType": "bytes4",
          "name": "interfaceId",
          "type": "bytes4"
        }
      ],
      "name": "supportsInterface",
      "outputs": [
        {
          "internalType": "bool",
          "name": "",
          "type": "bool"
        }
      ],
      "stateMutability": "view",
      "type": "function"
    },
    {
      "inputs": [],
      "name": "symbol",
      "outputs": [
        {
          "internalType": "string",
          "name": "",
          "type": "string"
        }
      ],
      "stateMutability": "view",
      "type": "function"
    },
    {
      "inputs": [],
      "name": "totalSupply",
      "outputs": [
        {
          "internalType": "uint256",
          "name": "",
          "type": "uint256"
        }
      ],
      "stateMutability": "view",
      "type": "function"
    },
    {
      "inputs": [
        {
          "internalType": "address",
          "name": "to",
          "type": "address"
        },
        {
          "internalType": "uint256",
          "name": "amount",
          "type": "uint256"
        }
      ],
      "name": "transfer",
      "outputs": [
        {
          "internalType": "bool",
          "name": "",
          "type": "bool"
        }
      ],
      "stateMutability": "nonpayable",
      "type": "function"
    },
    {
      "inputs": [
        {
          "internalType": "address",
          "name": "from",
          "type": "address"
        },
        {
          "internalType": "address",
          "name": "to",
          "type": "address"
        },
        {
          "internalType": "uint256",
          "name": "amount",
          "type": "uint256"
        }
      ],
      "name": "transferFrom",
      "outputs": [
        {
          "internalType": "bool",
          "name": "",
          "type": "bool"
        }
      ],
      "stateMutability": "nonpayable",
      "type": "function"
    }
  ],
  "bytecode": "0x610160604052348015610010575f5ffd5b50604051611ecd380380611ecd83398101604081905261002f916104bb565b6040805180820190915260018152603160f81b6020820152829081908184600361005983826105ad565b50600461006682826105ad565b50610076915083905060056101a1565b610120526100858160066101a1565b61014052815160208084019190912060e052815190820120610100524660a05261011160e05161010051604080517f8b73c3c69bb8fe3d512ecc4cf759cc79239f7b179b0ffacaa9a75d522b39400f60208201529081019290925260608201524660808201523060a08201525f9060c00160405160208183030381529060405280519060200120905090565b60805250503060c0525061012533846101d3565b61012f5f33610210565b5061015a7fa49807205ce4d355092ef5a8a18f56e8913cf4a201fbe287825b095693c2177533610210565b50335f81815260096020526040808220805460ff19166001179055517ee56b6623d31a13d7f3de1f433e634987aad40c35669f0f824222c304b5746d9190a25050506106de565b5f6020835110156101bc576101b5836102bb565b90506101cd565b816101c784826105ad565b5060ff90505b92915050565b6001600160a01b0382166102015760405163ec442f0560e01b81525f60048201526024015b60405180910390fd5b61020c5f83836102f8565b5050565b5f8281526008602090815260408083206001600160a01b038516845290915281205460ff166102b4575f8381526008602090815260408083206001600160a01b03861684529091529020805460ff1916600117905561026c3390565b6001600160a01b0316826001600160a01b0316847f2f8788117e7eff1d82e926ec794901d17c78024a50270940304540a733656f0d60405160405180910390a45060016101cd565b505f6101cd565b5f5f829050601f815111156102e5578260405163305a27a960e01b81526004016101f89190610667565b80516102f08261069c565b179392505050565b6001600160a01b038316610322578060025f82825461031791906106bf565b909155506103929050565b6001600160a01b0383165f90815260208190526040902054818110156103745760405163391434e360e21b81526001600160a01b038516600482015260248101829052604481018390526064016101f8565b6001600160a01b0384165f9081526020819052604090209082900390555b6001600160a01b0382166103ae576002805482900390556103cc565b6001600160a01b0382165f9081526020819052604090208054820190555b816001600160a01b0316836001600160a01b03167fddf252ad1be2c89b69c2b068fc378daa952ba7f163c4a11628f55a4df523b3ef8360405161041191815260200190565b60405180910390a3505050565b634e487b7160e01b5f52604160045260245ffd5b5f82601f830112610441575f5ffd5b81516001600160401b0381111561045a5761045a61041e565b604051601f8201601f19908116603f011681016001600160401b03811182821017156104885761048861041e565b60405281815283820160200185101561049f575f5ffd5b8160208501602083015e5f918101602001919091529392505050565b5f5f5f606084860312156104cd575f5ffd5b835160208501519093506001600160401b038111156104ea575f5ffd5b6104f686828701610432565b604086015190935090506001600160401b03811115610513575f5ffd5b61051f86828701610432565b9150509250925092565b600181811c9082168061053d57607f821691505b60208210810361055b57634e487b7160e01b5f52602260045260245ffd5b50919050565b601f8211156105a857805f5260205f20601f840160051c810160208510156105865750805b601f840160051c820191505b818110156105a5575f8155600101610592565b50505b505050565b81516001600160401b038111156105c6576105c661041e565b6105da816105d48454610529565b84610561565b6020601f82116001811461060c575f83156105f55750848201515b5f19600385901b1c1916600184901b1784556105a5565b5f84815260208120601f198516915b8281101561063b578785015182556020948501946001909201910161061b565b508482101561065857868401515f19600387901b60f8161c191681555b50505050600190811b01905550565b602081525f82518060208401528060208501604085015e5f604082850101526040601f19601f83011684010191505092915050565b8051602080830151919081101561055b575f1960209190910360031b1b16919050565b808201808211156101cd57634e487b7160e01b5f52601160045260245ffd5b60805160a05160c05160e05161010051610120516101405161179e61072f5f395f610d6401525f610d3701525f610c7501525f610c4d01525f610ba801525f610bd201525f610bfc015261179e5ff3fe608060405234801561000f575f5ffd5b5060043610610187575f3560e01c806370dd8d2e116100d957806395d89b4111610093578063d505accf1161006e578063d505accf1461037c578063d547741f1461038f578063dd62ed3e146103a2578063eba8dabc146103da575f5ffd5b806395d89b411461035a578063a217fddf14610362578063a9059cbb14610369575f5ffd5b806370dd8d2e146102c757806375b238fc146102f25780637ecebe001461030657806384b0196e146103195780638d33420a1461033457806391d1485414610347575f5ffd5b8063248a9ca31161014457806331f591021161011f57806331f59102146102715780633644e5151461028457806336568abe1461028c57806370a082311461029f575f5ffd5b8063248a9ca31461022b5780632f2ff15d1461024d578063313ce56714610262575f5ffd5b806301ffc9a71461018b57806306fdde03146101b3578063095ea7b3146101c8578063180cbefc146101db57806318160ddd1461021057806323b872dd14610218575b5f5ffd5b61019e6101993660046113f1565b6103ed565b60405190151581526020015b60405180910390f35b6101bb6103fd565b6040516101aa9190611446565b61019e6101d6366004611473565b61048d565b6102027f27635d090072063300e62545cc2f6a7dc583162c8abe1f7a7e48e152b6be1d2281565b6040519081526020016101aa565b600254610202565b61019e61022636600461149b565b6104a4565b6102026102393660046114d5565b5f9081526008602052604090206001015490565b61026061025b3660046114ec565b6104c2565b005b604051601281526020016101aa565b61026061027f366004611516565b6104ec565b610202610587565b61026061029a3660046114ec565b610595565b6102026102ad366004611516565b6001600160a01b03165f9081526020819052604090205490565b61019e6102d5366004611516565b6001600160a01b03165f9081526009602052604090205460ff1690565b6102025f5160206117495f395f51905f5281565b610202610314366004611516565b6105cd565b6103216105ea565b6040516101aa979695949392919061152f565b6102606103423660046115c5565b61062c565b61019e6103553660046114ec565b6107b9565b6101bb6107e3565b6102025f81565b61019e610377366004611473565b6107f2565b61026061038a366004611648565b61080e565b61026061039d3660046114ec565b610949565b6102026103b03660046116b5565b6001600160a01b039182165f90815260016020908152604080832093909416825291909152205490565b6102606103e8366004611516565b61096d565b5f6103f782610a10565b92915050565b60606003805461040c906116dd565b80601f0160208091040260200160405190810160405280929190818152602001828054610438906116dd565b80156104835780601f1061045a57610100808354040283529160200191610483565b820191905f5260205f20905b81548152906001019060200180831161046657829003601f168201915b5050505050905090565b5f3361049a818585610a44565b5060019392505050565b5f6104af8484610a51565b6104ba848484610adb565b949350505050565b5f828152600860205260409020600101546104dc81610afe565b6104e68383610b0b565b50505050565b5f5160206117495f395f51905f5261050381610afe565b6001600160a01b0382165f9081526009602052604090205460ff161561053c57604051632a240d9f60e11b815260040160405180910390fd5b6001600160a01b0382165f81815260096020526040808220805460ff19166001179055517ee56b6623d31a13d7f3de1f433e634987aad40c35669f0f824222c304b5746d9190a25050565b5f610590610b9c565b905090565b6001600160a01b03811633146105be5760405163334bd91960e11b815260040160405180910390fd5b6105c88282610cc5565b505050565b6001600160a01b0381165f908152600760205260408120546103f7565b5f6060805f5f5f60606105fb610d30565b610603610d5d565b604080515f80825260208201909252600f60f81b9b939a50919850469750309650945092509050565b8242111561064d57604051630819bdcd60e01b815260040160405180910390fd5b6001600160a01b0384165f9081526009602052604090205460ff161561068657604051632a240d9f60e11b815260040160405180910390fd5b604080517f27635d090072063300e62545cc2f6a7dc583162c8abe1f7a7e48e152b6be1d2260208201526001600160a01b03861691810191909152606081018490525f906080016040516020818303038152906040528051906020012090505f6106ef82610d8a565b90505f61073385858080601f0160208091040260200160405190810160405280939291908181526020018383808284375f920191909152508693925050610db69050565b905061074c5f5160206117495f395f51905f52826107b9565b61076957604051638baa579f60e01b815260040160405180910390fd5b6001600160a01b0387165f81815260096020526040808220805460ff19166001179055517ee56b6623d31a13d7f3de1f433e634987aad40c35669f0f824222c304b5746d9190a250505050505050565b5f9182526008602090815260408084206001600160a01b0393909316845291905290205460ff1690565b60606004805461040c906116dd565b5f6107fd3384610a51565b6108078383610dde565b9392505050565b834211156108375760405163313c898160e11b8152600481018590526024015b60405180910390fd5b5f7f6e71edae12b1b97f4d1f60370fef10105fa2faae0126114a169c64845d6126c98888886108828c6001600160a01b03165f90815260076020526040902080546001810190915590565b6040805160208101969096526001600160a01b0394851690860152929091166060840152608083015260a082015260c0810186905260e0016040516020818303038152906040528051906020012090505f6108dc82610d8a565b90505f6108eb82878787610deb565b9050896001600160a01b0316816001600160a01b031614610932576040516325c0072360e11b81526001600160a01b0380831660048301528b16602482015260440161082e565b61093d8a8a8a610a44565b50505050505050505050565b5f8281526008602052604090206001015461096381610afe565b6104e68383610cc5565b5f5160206117495f395f51905f5261098481610afe565b6001600160a01b0382165f9081526009602052604090205460ff166109c757604051635bb897bf60e11b81526001600160a01b038316600482015260240161082e565b6001600160a01b0382165f81815260096020526040808220805460ff19169055517fe7fc45e1e6a61a6d67e182d4847f8c2dcde282d7008410c1bc3a7e8fa299eb909190a25050565b5f6001600160e01b03198216637965db0b60e01b14806103f757506301ffc9a760e01b6001600160e01b03198316146103f7565b6105c88383836001610e17565b6001600160a01b0382165f9081526009602052604090205460ff16610a9457604051635bb897bf60e11b81526001600160a01b038316600482015260240161082e565b6001600160a01b0381165f9081526009602052604090205460ff16610ad757604051635bb897bf60e11b81526001600160a01b038216600482015260240161082e565b5050565b5f33610ae8858285610ee9565b610af3858585610f5f565b506001949350505050565b610b088133610fbc565b50565b5f610b1683836107b9565b610b95575f8381526008602090815260408083206001600160a01b03861684529091529020805460ff19166001179055610b4d3390565b6001600160a01b0316826001600160a01b0316847f2f8788117e7eff1d82e926ec794901d17c78024a50270940304540a733656f0d60405160405180910390a45060016103f7565b505f6103f7565b5f306001600160a01b037f000000000000000000000000000000000000000000000000000000000000000016148015610bf457507f000000000000000000000000000000000000000000000000000000000000000046145b15610c1e57507f000000000000000000000000000000000000000000000000000000000000000090565b610590604080517f8b73c3c69bb8fe3d512ecc4cf759cc79239f7b179b0ffacaa9a75d522b39400f60208201527f0000000000000000000000000000000000000000000000000000000000000000918101919091527f000000000000000000000000000000000000000000000000000000000000000060608201524660808201523060a08201525f9060c00160405160208183030381529060405280519060200120905090565b5f610cd083836107b9565b15610b95575f8381526008602090815260408083206001600160a01b0386168085529252808320805460ff1916905551339286917ff6391f5c32d9c69d2a47ea670b442974b53935d1edc7fd64eb21e047a839171b9190a45060016103f7565b60606105907f00000000000000000000000000000000000000000000000000000000000000006005610ff5565b60606105907f00000000000000000000000000000000000000000000000000000000000000006006610ff5565b5f6103f7610d96610b9c565b8360405161190160f01b8152600281019290925260228201526042902090565b5f5f5f5f610dc4868661109e565b925092509250610dd482826110e7565b5090949350505050565b5f3361049a818585610f5f565b5f5f5f5f610dfb8888888861119f565b925092509250610e0b82826110e7565b50909695505050505050565b6001600160a01b038416610e405760405163e602df0560e01b81525f600482015260240161082e565b6001600160a01b038316610e6957604051634a1406b160e11b81525f600482015260240161082e565b6001600160a01b038085165f90815260016020908152604080832093871683529290522082905580156104e657826001600160a01b0316846001600160a01b03167f8c5be1e5ebec7d5bd14f71427d1e84f3dd0314c0f7b2291e5b200ac8c7c3b92584604051610edb91815260200190565b60405180910390a350505050565b6001600160a01b038381165f908152600160209081526040808320938616835292905220545f198110156104e65781811015610f5157604051637dc7a0d960e11b81526001600160a01b0384166004820152602481018290526044810183905260640161082e565b6104e684848484035f610e17565b6001600160a01b038316610f8857604051634b637e8f60e11b81525f600482015260240161082e565b6001600160a01b038216610fb15760405163ec442f0560e01b81525f600482015260240161082e565b6105c8838383611267565b610fc682826107b9565b610ad75760405163e2517d3f60e01b81526001600160a01b03821660048201526024810183905260440161082e565b606060ff831461100f576110088361138d565b90506103f7565b81805461101b906116dd565b80601f0160208091040260200160405190810160405280929190818152602001828054611047906116dd565b80156110925780601f1061106957610100808354040283529160200191611092565b820191905f5260205f20905b81548152906001019060200180831161107557829003601f168201915b505050505090506103f7565b5f5f5f83516041036110d5576020840151604085015160608601515f1a6110c78882858561119f565b9550955095505050506110e0565b505081515f91506002905b9250925092565b5f8260038111156110fa576110fa611715565b03611103575050565b600182600381111561111757611117611715565b036111355760405163f645eedf60e01b815260040160405180910390fd5b600282600381111561114957611149611715565b0361116a5760405163fce698f760e01b81526004810182905260240161082e565b600382600381111561117e5761117e611715565b03610ad7576040516335e2f38360e21b81526004810182905260240161082e565b5f80807f7fffffffffffffffffffffffffffffff5d576e7357a4501ddfe92f46681b20a08411156111d857505f9150600390508261125d565b604080515f808252602082018084528a905260ff891692820192909252606081018790526080810186905260019060a0016020604051602081039080840390855afa158015611229573d5f5f3e3d5ffd5b5050604051601f1901519150506001600160a01b03811661125457505f92506001915082905061125d565b92505f91508190505b9450945094915050565b6001600160a01b038316611291578060025f8282546112869190611729565b909155506113019050565b6001600160a01b0383165f90815260208190526040902054818110156112e35760405163391434e360e21b81526001600160a01b0385166004820152602481018290526044810183905260640161082e565b6001600160a01b0384165f9081526020819052604090209082900390555b6001600160a01b03821661131d5760028054829003905561133b565b6001600160a01b0382165f9081526020819052604090208054820190555b816001600160a01b0316836001600160a01b03167fddf252ad1be2c89b69c2b068fc378daa952ba7f163c4a11628f55a4df523b3ef8360405161138091815260200190565b60405180910390a3505050565b60605f611399836113ca565b6040805160208082528183019092529192505f91906020820181803683375050509182525060208101929092525090565b5f60ff8216601f8111156103f757604051632cd44ac360e21b815260040160405180910390fd5b5f60208284031215611401575f5ffd5b81356001600160e01b031981168114610807575f5ffd5b5f81518084528060208401602086015e5f602082860101526020601f19601f83011685010191505092915050565b602081525f6108076020830184611418565b80356001600160a01b038116811461146e575f5ffd5b919050565b5f5f60408385031215611484575f5ffd5b61148d83611458565b946020939093013593505050565b5f5f5f606084860312156114ad575f5ffd5b6114b684611458565b92506114c460208501611458565b929592945050506040919091013590565b5f602082840312156114e5575f5ffd5b5035919050565b5f5f604083850312156114fd575f5ffd5b8235915061150d60208401611458565b90509250929050565b5f60208284031215611526575f5ffd5b61080782611458565b60ff60f81b8816815260e060208201525f61154d60e0830189611418565b828103604084015261155f8189611418565b606084018890526001600160a01b038716608085015260a0840186905283810360c0850152845180825260208087019350909101905f5b818110156115b4578351835260209384019390920191600101611596565b50909b9a5050505050505050505050565b5f5f5f5f606085870312156115d8575f5ffd5b6115e185611458565b935060208501359250604085013567ffffffffffffffff811115611603575f5ffd5b8501601f81018713611613575f5ffd5b803567ffffffffffffffff811115611629575f5ffd5b87602082840101111561163a575f5ffd5b949793965060200194505050565b5f5f5f5f5f5f5f60e0888a03121561165e575f5ffd5b61166788611458565b965061167560208901611458565b95506040880135945060608801359350608088013560ff81168114611698575f5ffd5b9699959850939692959460a0840135945060c09093013592915050565b5f5f604083850312156116c6575f5ffd5b6116cf83611458565b915061150d60208401611458565b600181811c908216806116f157607f821691505b60208210810361170f57634e487b7160e01b5f52602260045260245ffd5b50919050565b634e487b7160e01b5f52602160045260245ffd5b808201808211156103f757634e487b7160e01b5f52601160045260245ffdfea49807205ce4d355092ef5a8a18f56e8913cf4a201fbe287825b095693c21775a264697066735822122091b918cf2c46e7a2c094b0fd8a986f7c26d797d6865d166d3266cd617bdce16964736f6c634300081c0033",
  "linkReferences": {},
  "deployedLinkReferences": {},
  "immutableReferences": {
    "3612": [
      {
        "length": 32,
        "start": 3068
      }
    ],
    "3614": [
      {
        "length": 32,
        "start": 3026
      }
    ],
    "3616": [
      {
        "length": 32,
        "start": 2984
      }
    ],
    "3618": [
      {
        "length": 32,
        "start": 3149
      }
    ],
    "3620": [
      {
        "length": 32,
        "start": 3189
      }
    ],
    "3623": [
      {
        "length": 32,
        "start": 3383
      }
    ],
    "3626": [
      {
        "length": 32,
        "start": 3428
      }
    ]
  },
  "inputSourceName": "project/contracts/FoRToken.sol",
  "buildInfoId": "solc-0_8_28-5aa01ff243ad5b208267044bfe0ef66e032fad37"
}