{
  "_format": "hh3-artifact-1",
  "contractName": "RouterFactory",
  "sourceName": "contracts/RouterFactory.sol",
  "abi": [
    {
      "inputs": [],
      "name": "Create2EmptyBytecode",
      "type": "error"
    },
    {
      "inputs": [],
      "name": "FailedDeployment",
      "type": "error"
    },
    {
      "inputs": [
        {
          "internalType": "uint256",
          "name": "balance",
          "type": "uint256"
        },
        {
          "internalType": "uint256",
          "name": "needed",
          "type": "uint256"
        }
      ],
      "name": "InsufficientBalance",
      "type": "error"
    },
    {
      "inputs": [
        {
          "internalType": "bytes32",
          "name": "_salt",
          "type": "bytes32"
        },
        {
          "internalType": "address",
          "name": "_initialAdmin",
          "type": "address"
        },
        {
          "internalType": "address",
          "name": "_forToken",
          "type": "address"
        },
        {
          "internalType": "address",
          "name": "_fundWallet",
          "type": "address"
        },
        {
          "internalType": "uint256",
          "name": "_fundRatio",
          "type": "uint256"
        },
        {
          "internalType": "uint256",
          "name": "_burnRatio",
          "type": "uint256"
        }
      ],
      "name": "computeAddress",
      "outputs": [
        {
          "internalType": "address",
          "name": "addr",
          "type": "address"
        }
      ],
      "stateMutability": "view",
      "type": "function"
    },
    {
      "inputs": [
        {
          "internalType": "bytes32",
          "name": "_salt",
          "type": "bytes32"
        },
        {
          "internalType": "address",
          "name": "_initialAdmin",
          "type": "address"
        },
        {
          "internalType": "address",
          "name": "_forToken",
          "type": "address"
        },
        {
          "internalType": "address",
          "name": "_fundWallet",
          "type": "address"
        },
        {
          "internalType": "uint256",
          "name": "_fundRatio",
          "type": "uint256"
        },
        {
          "internalType": "uint256",
          "name": "_burnRatio",
          "type": "uint256"
        }
      ],
      "name": "deploy",
      "outputs": [
        {
          "internalType": "address",
          "name": "addr",
          "type": "address"
        }
      ],
      "stateMutability": "nonpayable",
      "type": "function"
    }
  ],
  "bytecode": "0x6080604052348015600e575f5ffd5b506117448061001c5f395ff3fe608060405234801561000f575f5ffd5b5060043610610034575f3560e01c80635342fa6d14610038578063accc0de914610067575b5f5ffd5b61004b6100463660046102a8565b61007a565b6040516001600160a01b03909116815260200160405180910390f35b61004b6100753660046102a8565b610114565b5f5f6040518060200161008c90610280565b601f1982820381018352601f9091011660408181526001600160a01b038a8116602084015289811682840152881660608301526080820187905260a08083018790528151808403909101815260c083019091526100ec929160e00161031a565b60405160208183030381529060405290506101085f89836101a8565b98975050505050505050565b5f5f6040518060200161012690610280565b601f1982820381018352601f9091011660408181526001600160a01b038a8116602084015289811682840152881660608301526080820187905260a08083018790528151808403909101815260c08301909152610186929160e00161031a565b6040516020818303038152906040529050610108888280519060200120610247565b5f834710156101d75760405163cf47918160e01b81524760048201526024810185905260440160405180910390fd5b81515f036101f857604051631328927760e21b815260040160405180910390fd5b8282516020840186f590503d151981151615610219576040513d5f823e3d81fd5b6001600160a01b0381166102405760405163b06ebf3d60e01b815260040160405180910390fd5b9392505050565b5f6102408383305f604051836040820152846020820152828152600b8101905060ff8153605590206001600160a01b0316949350505050565b6113d88061033783390190565b80356001600160a01b03811681146102a3575f5ffd5b919050565b5f5f5f5f5f5f60c087890312156102bd575f5ffd5b863595506102cd6020880161028d565b94506102db6040880161028d565b93506102e96060880161028d565b9598949750929560808101359460a0909101359350915050565b5f81518060208401855e5f93019283525090919050565b5f61032e6103288386610303565b84610303565b94935050505056fe60a060405234801561000f575f5ffd5b506040516113d83803806113d883398101604081905261002e91610242565b60016002556001600160a01b03851661008e5760405162461bcd60e51b815260206004820152601d60248201527f496e76616c696420696e697469616c2061646d696e206164647265737300000060448201526064015b60405180910390fd5b6001600160a01b0384166100e45760405162461bcd60e51b815260206004820152601560248201527f496e76616c696420746f6b656e206164647265737300000000000000000000006044820152606401610085565b6001600160a01b03848116608052600580546001600160a01b0319169185169190911790556003829055600481905561011d5f8661017e565b506101487f0b84ee281e5cf521a9ad54a86fafe78946b157177e231bd8ae785af4d3b3620f8661017e565b506101737f6eb7b5d79494977a37888770061a15887107ab7330d122990e924a580062e6e08661017e565b505050505050610294565b5f828152602081815260408083206001600160a01b038516845290915281205460ff1661021e575f838152602081815260408083206001600160a01b03861684529091529020805460ff191660011790556101d63390565b6001600160a01b0316826001600160a01b0316847f2f8788117e7eff1d82e926ec794901d17c78024a50270940304540a733656f0d60405160405180910390a4506001610221565b505f5b92915050565b80516001600160a01b038116811461023d575f5ffd5b919050565b5f5f5f5f5f60a08688031215610256575f5ffd5b61025f86610227565b945061026d60208701610227565b935061027b60408701610227565b6060870151608090970151959894975095949392505050565b60805161111e6102ba5f395f81816102d2015281816108210152610b47015261111e5ff3fe608060405234801561000f575f5ffd5b506004361061013d575f3560e01c8063664a1ad6116100b4578063a217fddf11610079578063a217fddf146102b3578063b29f3383146102ba578063d32482c3146102cd578063d547741f146102f4578063d5b17aba14610307578063fccc28131461031a575f5ffd5b8063664a1ad6146102515780638456cb591461027c5780638ed648501461028457806391d148541461028d5780639370131f146102a0575f5ffd5b806336568abe1161010557806336568abe146101fc5780633f4ba83a1461020f5780634dbfe416146102175780635192c82c1461022a57806355ce3b9a146102335780635c975abb14610246575f5ffd5b806301ffc9a714610141578063248a9ca314610169578063253123d7146101995780632f2ff15d146101c05780632f83a6bc146101d5575b5f5ffd5b61015461014f366004610e1e565b610323565b60405190151581526020015b60405180910390f35b61018b610177366004610e4c565b5f9081526020819052604090206001015490565b604051908152602001610160565b61018b7f6eb7b5d79494977a37888770061a15887107ab7330d122990e924a580062e6e081565b6101d36101ce366004610e7e565b610359565b005b61018b7f0b84ee281e5cf521a9ad54a86fafe78946b157177e231bd8ae785af4d3b3620f81565b6101d361020a366004610e7e565b610383565b6101d36103bb565b6101d3610225366004610e4c565b6103d0565b61018b60045481565b6101d3610241366004610ea8565b6104c8565b60015460ff16610154565b600554610264906001600160a01b031681565b6040516001600160a01b039091168152602001610160565b6101d3610573565b61018b60035481565b61015461029b366004610e7e565b610585565b6101d36102ae366004610e4c565b6105ad565b61018b5f81565b6101d36102c8366004610f06565b610673565b6102647f000000000000000000000000000000000000000000000000000000000000000081565b6101d3610302366004610e7e565b61075c565b6101d3610315366004610f70565b610780565b61026461dead81565b5f6001600160e01b03198216637965db0b60e01b148061035357506301ffc9a760e01b6001600160e01b03198316145b92915050565b5f828152602081905260409020600101546103738161090e565b61037d8383610918565b50505050565b6001600160a01b03811633146103ac5760405163334bd91960e11b815260040160405180910390fd5b6103b682826109a7565b505050565b5f6103c58161090e565b6103cd610a10565b50565b7f6eb7b5d79494977a37888770061a15887107ab7330d122990e924a580062e6e06103fa8161090e565b610402610a62565b612710600454836104139190611023565b11156104615760405162461bcd60e51b8152602060048201526018602482015277546f74616c20726174696f2065786365656473203130302560401b60448201526064015b60405180910390fd5b600382905560045433907fb55f79fe5ce919308890d69197336bfe5e7ec459de785951879b018086e8ce999084908061049c83612710611036565b6104a69190611036565b6040805193845260208401929092529082015260600160405180910390a25050565b7f0b84ee281e5cf521a9ad54a86fafe78946b157177e231bd8ae785af4d3b3620f6104f28161090e565b6104fa610a62565b6001600160a01b0382166105505760405162461bcd60e51b815260206004820152601b60248201527f496e76616c69642066756e642077616c6c6574206164647265737300000000006044820152606401610458565b50600580546001600160a01b0319166001600160a01b0392909216919091179055565b5f61057d8161090e565b6103cd610a88565b5f918252602082815260408084206001600160a01b0393909316845291905290205460ff1690565b7f6eb7b5d79494977a37888770061a15887107ab7330d122990e924a580062e6e06105d78161090e565b6105df610a62565b612710826003546105f09190611023565b11156106395760405162461bcd60e51b8152602060048201526018602482015277546f74616c20726174696f2065786365656473203130302560401b6044820152606401610458565b600482905560035433907fb55f79fe5ce919308890d69197336bfe5e7ec459de785951879b018086e8ce9990848061049c83612710611036565b61067b610a62565b610683610ac3565b825f036106a35760405163162908e360e11b815260040160405180910390fd5b6001600160a01b0384166106ca57604051634e46966960e11b815260040160405180910390fd5b5f5f5f6106d686610aeb565b9250925092506106e98888858585610b45565b866001600160a01b0316886001600160a01b0316336001600160a01b03167f70f8a12d1c2988ef27c7703ee9d55d19f32fcb94fa5baf6ecb3646f9a762b9c0898787878c8c60405161074096959493929190611049565b60405180910390a45050506107556001600255565b5050505050565b5f828152602081905260409020600101546107768161090e565b61037d83836109a7565b610788610a62565b610790610ac3565b865f036107b05760405163162908e360e11b815260040160405180910390fd5b6001600160a01b0388166107d757604051634e46966960e11b815260040160405180910390fd5b60405163d505accf60e01b81526001600160a01b038a81166004830152306024830152604482018990526064820188905260ff8716608483015260a4820186905260c482018590527f0000000000000000000000000000000000000000000000000000000000000000169063d505accf9060e4015f604051808303815f87803b158015610862575f5ffd5b505af1158015610874573d5f5f3e3d5ffd5b505050505f5f5f6108848a610aeb565b9250925092506108978c8c858585610b45565b8a6001600160a01b03168c6001600160a01b0316336001600160a01b03167f70f8a12d1c2988ef27c7703ee9d55d19f32fcb94fa5baf6ecb3646f9a762b9c08d8787878c8c6040516108ee96959493929190611049565b60405180910390a45050506109036001600255565b505050505050505050565b6103cd8133610dbe565b5f6109238383610585565b6109a0575f838152602081815260408083206001600160a01b03861684529091529020805460ff191660011790556109583390565b6001600160a01b0316826001600160a01b0316847f2f8788117e7eff1d82e926ec794901d17c78024a50270940304540a733656f0d60405160405180910390a4506001610353565b505f610353565b5f6109b28383610585565b156109a0575f838152602081815260408083206001600160a01b0386168085529252808320805460ff1916905551339286917ff6391f5c32d9c69d2a47ea670b442974b53935d1edc7fd64eb21e047a839171b9190a4506001610353565b610a18610dfb565b6001805460ff191690557f5db9ee0a495bf2e6ff9c91a7834c1ba4fdd244a5e8aa4e537bd38aeae4b073aa335b6040516001600160a01b03909116815260200160405180910390a1565b60015460ff1615610a865760405163d93c066560e01b815260040160405180910390fd5b565b610a90610a62565b6001805460ff1916811790557f62e78cea01bee320cd4e420270b5ea74000d11b0c9f74754ebdbfc544b05a25833610a45565b6002805403610ae557604051633ee5aeb560e01b815260040160405180910390fd5b60028055565b5f5f5f61271060035485610aff9190611093565b610b0991906110aa565b925061271060045485610b1c9190611093565b610b2691906110aa565b915081610b338486611036565b610b3d9190611036565b929491935050565b7f00000000000000000000000000000000000000000000000000000000000000008315610c2b576005546040516323b872dd60e01b81526001600160a01b038881166004830152918216602482015260448101869052908216906323b872dd906064016020604051808303815f875af1158015610bc4573d5f5f3e3d5ffd5b505050506040513d601f19601f82011682018060405250810190610be891906110c9565b610c2b5760405162461bcd60e51b8152602060048201526014602482015273119d5b99081d1c985b9cd9995c8819985a5b195960621b6044820152606401610458565b8215610cec576040516323b872dd60e01b81526001600160a01b03878116600483015261dead6024830152604482018590528216906323b872dd906064016020604051808303815f875af1158015610c85573d5f5f3e3d5ffd5b505050506040513d601f19601f82011682018060405250810190610ca991906110c9565b610cec5760405162461bcd60e51b8152602060048201526014602482015273109d5c9b881d1c985b9cd9995c8819985a5b195960621b6044820152606401610458565b8115610db6576040516323b872dd60e01b81526001600160a01b0387811660048301528681166024830152604482018490528216906323b872dd906064016020604051808303815f875af1158015610d46573d5f5f3e3d5ffd5b505050506040513d601f19601f82011682018060405250810190610d6a91906110c9565b610db65760405162461bcd60e51b815260206004820152601960248201527f526563697069656e74207472616e73666572206661696c6564000000000000006044820152606401610458565b505050505050565b610dc88282610585565b610df75760405163e2517d3f60e01b81526001600160a01b038216600482015260248101839052604401610458565b5050565b60015460ff16610a8657604051638dfc202b60e01b815260040160405180910390fd5b5f60208284031215610e2e575f5ffd5b81356001600160e01b031981168114610e45575f5ffd5b9392505050565b5f60208284031215610e5c575f5ffd5b5035919050565b80356001600160a01b0381168114610e79575f5ffd5b919050565b5f5f60408385031215610e8f575f5ffd5b82359150610e9f60208401610e63565b90509250929050565b5f60208284031215610eb8575f5ffd5b610e4582610e63565b5f5f83601f840112610ed1575f5ffd5b50813567ffffffffffffffff811115610ee8575f5ffd5b602083019150836020828501011115610eff575f5ffd5b9250929050565b5f5f5f5f5f60808688031215610f1a575f5ffd5b610f2386610e63565b9450610f3160208701610e63565b935060408601359250606086013567ffffffffffffffff811115610f53575f5ffd5b610f5f88828901610ec1565b969995985093965092949392505050565b5f5f5f5f5f5f5f5f5f6101008a8c031215610f89575f5ffd5b610f928a610e63565b9850610fa060208b01610e63565b975060408a0135965060608a0135955060808a013560ff81168114610fc3575f5ffd5b945060a08a0135935060c08a0135925060e08a013567ffffffffffffffff811115610fec575f5ffd5b610ff88c828d01610ec1565b915080935050809150509295985092959850929598565b634e487b7160e01b5f52601160045260245ffd5b808201808211156103535761035361100f565b818103818111156103535761035361100f565b86815285602082015284604082015283606082015260a060808201528160a0820152818360c08301375f81830160c090810191909152601f909201601f1916010195945050505050565b80820281158282048414176103535761035361100f565b5f826110c457634e487b7160e01b5f52601260045260245ffd5b500490565b5f602082840312156110d9575f5ffd5b81518015158114610e45575f5ffdfea26469706673582212200f7ded41f46a0b632bb8ccac40ab88fcd2bccf33fd304a7afdf571137290788164736f6c634300081c0033a2646970667358221220fba5e63cf42334ae74e4995b3d11a2a925d04d30f76ab0f1c198df406dd9ca4864736f6c634300081c0033",
  "linkReferences": {},
  "deployedLinkReferences": {},
  "immutableReferences": {},
  "inputSourceName": "project/contracts/RouterFactory.sol",
  "buildInfoId": "solc-0_8_28-2abec7d967c9d33f20f1f6860a358b95637999b7"
}