{
  "_format": "hh3-artifact-1",
  "contractName": "RouterFactory",
  "sourceName": "contracts/RouterFactory.sol",
  "abi": [
    {
      "inputs": [],
      "name": "Create2EmptyBytecode",
      "type": "error"
    },
    {
      "inputs": [],
      "name": "FailedDeployment",
      "type": "error"
    },
    {
      "inputs": [
        {
          "internalType": "uint256",
          "name": "balance",
          "type": "uint256"
        },
        {
          "internalType": "uint256",
          "name": "needed",
          "type": "uint256"
        }
      ],
      "name": "InsufficientBalance",
      "type": "error"
    },
    {
      "inputs": [
        {
          "internalType": "bytes32",
          "name": "_salt",
          "type": "bytes32"
        },
        {
          "internalType": "address",
          "name": "_fundWallet",
          "type": "address"
        },
        {
          "internalType": "uint256",
          "name": "_fundRatio",
          "type": "uint256"
        },
        {
          "internalType": "uint256",
          "name": "_burnRatio",
          "type": "uint256"
        }
      ],
      "name": "computeAddress",
      "outputs": [
        {
          "internalType": "address",
          "name": "addr",
          "type": "address"
        }
      ],
      "stateMutability": "view",
      "type": "function"
    },
    {
      "inputs": [
        {
          "internalType": "bytes32",
          "name": "_salt",
          "type": "bytes32"
        },
        {
          "internalType": "address",
          "name": "_fundWallet",
          "type": "address"
        },
        {
          "internalType": "uint256",
          "name": "_fundRatio",
          "type": "uint256"
        },
        {
          "internalType": "uint256",
          "name": "_burnRatio",
          "type": "uint256"
        }
      ],
      "name": "deploy",
      "outputs": [
        {
          "internalType": "address",
          "name": "addr",
          "type": "address"
        }
      ],
      "stateMutability": "nonpayable",
      "type": "function"
    }
  ],
  "bytecode": "0x6080604052348015600e575f5ffd5b5061048d8061001c5f395ff3fe608060405234801561000f575f5ffd5b5060043610610034575f3560e01c806398f3e1ed14610038578063b852a47a14610067575b5f5ffd5b61004b610046366004610272565b61007a565b6040516001600160a01b03909116815260200160405180910390f35b61004b610075366004610272565b610109565b5f5f6040518060200161008c90610265565b601f1982820381018352601f9091011660408181526001600160a01b038816602083015281018690526060810185905260800160408051601f19818403018152908290526100dd92916020016102ce565b60405160208183030381529060405290506100ff868280519060200120610188565b9695505050505050565b5f5f6040518060200161011b90610265565b601f1982820381018352601f9091011660408181526001600160a01b038816602083015281018690526060810185905260800160408051601f198184030181529082905261016c92916020016102ce565b60405160208183030381529060405290506100ff5f878361019b565b5f610194838330610233565b9392505050565b5f834710156101ca5760405163cf47918160e01b81524760048201526024810185905260440160405180910390fd5b81515f036101eb57604051631328927760e21b815260040160405180910390fd5b8282516020840186f590503d15198115161561020c576040513d5f823e3d81fd5b6001600160a01b0381166101945760405163b06ebf3d60e01b815260040160405180910390fd5b5f604051836040820152846020820152828152600b8101905060ff8153605590206001600160a01b0316949350505050565b61016d806102eb83390190565b5f5f5f5f60808587031215610285575f5ffd5b8435935060208501356001600160a01b03811681146102a2575f5ffd5b93969395505050506040820135916060013590565b5f81518060208401855e5f93019283525090919050565b5f6102e26102dc83866102b7565b846102b7565b94935050505056fe6080604052348015600e575f5ffd5b5060405161016d38038061016d833981016040819052602b916055565b600280546001600160a01b0319166001600160a01b0394909416939093179092555f556001556092565b5f5f5f606084860312156066575f5ffd5b83516001600160a01b0381168114607b575f5ffd5b602085015160409095015190969495509392505050565b60cf8061009e5f395ff3fe6080604052348015600e575f5ffd5b50600436106044575f3560e01c80635192c82c146048578063664a1ad61460635780638ed6485014608c578063fccc2813146093575b5f5ffd5b605060015481565b6040519081526020015b60405180910390f35b6002546075906001600160a01b031681565b6040516001600160a01b039091168152602001605a565b60505f5481565b60755f8156fea2646970667358221220f57de3f9586db93e10655a71b152bbbb452bf3af25edb9ac2e53cbcde435d97b64736f6c634300081c0033a2646970667358221220fc2cd9ddbb51c51e88e737879edd3a8fc4566a13961a6d48f751bf44fb0477fc64736f6c634300081c0033",
  "linkReferences": {},
  "deployedLinkReferences": {},
  "immutableReferences": {},
  "inputSourceName": "project/contracts/RouterFactory.sol",
  "buildInfoId": "solc-0_8_28-2ae137af0fd547d491e151cb114bf8327c424b48"
}