{
  "_format": "hh3-artifact-1",
  "contractName": "RouterFactory",
  "sourceName": "contracts/RouterFactory.sol",
  "abi": [
    {
      "inputs": [],
      "name": "Create2EmptyBytecode",
      "type": "error"
    },
    {
      "inputs": [],
      "name": "FailedDeployment",
      "type": "error"
    },
    {
      "inputs": [
        {
          "internalType": "uint256",
          "name": "balance",
          "type": "uint256"
        },
        {
          "internalType": "uint256",
          "name": "needed",
          "type": "uint256"
        }
      ],
      "name": "InsufficientBalance",
      "type": "error"
    },
    {
      "inputs": [
        {
          "internalType": "bytes32",
          "name": "_salt",
          "type": "bytes32"
        },
        {
          "internalType": "address",
          "name": "_fundWallet",
          "type": "address"
        },
        {
          "internalType": "uint256",
          "name": "_fundRatio",
          "type": "uint256"
        },
        {
          "internalType": "uint256",
          "name": "_burnRatio",
          "type": "uint256"
        }
      ],
      "name": "computeAddress",
      "outputs": [
        {
          "internalType": "address",
          "name": "addr",
          "type": "address"
        }
      ],
      "stateMutability": "view",
      "type": "function"
    },
    {
      "inputs": [
        {
          "internalType": "bytes32",
          "name": "_salt",
          "type": "bytes32"
        },
        {
          "internalType": "address",
          "name": "_fundWallet",
          "type": "address"
        },
        {
          "internalType": "uint256",
          "name": "_fundRatio",
          "type": "uint256"
        },
        {
          "internalType": "uint256",
          "name": "_burnRatio",
          "type": "uint256"
        }
      ],
      "name": "deploy",
      "outputs": [
        {
          "internalType": "address",
          "name": "addr",
          "type": "address"
        }
      ],
      "stateMutability": "nonpayable",
      "type": "function"
    }
  ],
  "bytecode": "0x6080604052348015600e575f5ffd5b50610c288061001c5f395ff3fe608060405234801561000f575f5ffd5b5060043610610034575f3560e01c806398f3e1ed14610038578063b852a47a14610067575b5f5ffd5b61004b610046366004610272565b61007a565b6040516001600160a01b03909116815260200160405180910390f35b61004b610075366004610272565b610109565b5f5f6040518060200161008c90610265565b601f1982820381018352601f9091011660408181526001600160a01b038816602083015281018690526060810185905260800160408051601f19818403018152908290526100dd92916020016102ce565b60405160208183030381529060405290506100ff868280519060200120610188565b9695505050505050565b5f5f6040518060200161011b90610265565b601f1982820381018352601f9091011660408181526001600160a01b038816602083015281018690526060810185905260800160408051601f198184030181529082905261016c92916020016102ce565b60405160208183030381529060405290506100ff5f878361019b565b5f610194838330610233565b9392505050565b5f834710156101ca5760405163cf47918160e01b81524760048201526024810185905260440160405180910390fd5b81515f036101eb57604051631328927760e21b815260040160405180910390fd5b8282516020840186f590503d15198115161561020c576040513d5f823e3d81fd5b6001600160a01b0381166101945760405163b06ebf3d60e01b815260040160405180910390fd5b5f604051836040820152846020820152828152600b8101905060ff8153605590206001600160a01b0316949350505050565b610908806102eb83390190565b5f5f5f5f60808587031215610285575f5ffd5b8435935060208501356001600160a01b03811681146102a2575f5ffd5b93969395505050506040820135916060013590565b5f81518060208401855e5f93019283525090919050565b5f6102e26102dc83866102b7565b846102b7565b94935050505056fe608060405234801561000f575f5ffd5b5060405161090838038061090883398101604081905261002e9161016b565b600380546001600160a01b0319166001600160a01b038516179055600182905560028190556100635f61005e3390565b6100c2565b5061008e7f0b84ee281e5cf521a9ad54a86fafe78946b157177e231bd8ae785af4d3b3620f336100c2565b506100b97f6eb7b5d79494977a37888770061a15887107ab7330d122990e924a580062e6e0336100c2565b505050506101aa565b5f828152602081815260408083206001600160a01b038516845290915281205460ff16610162575f838152602081815260408083206001600160a01b03861684529091529020805460ff1916600117905561011a3390565b6001600160a01b0316826001600160a01b0316847f2f8788117e7eff1d82e926ec794901d17c78024a50270940304540a733656f0d60405160405180910390a4506001610165565b505f5b92915050565b5f5f5f6060848603121561017d575f5ffd5b83516001600160a01b0381168114610193575f5ffd5b602085015160409095015190969495509392505050565b610751806101b75f395ff3fe608060405234801561000f575f5ffd5b50600436106100fb575f3560e01c806355ce3b9a116100935780639370131f116100635780639370131f14610243578063a217fddf14610256578063d547741f1461025d578063fccc281314610270575f5ffd5b806355ce3b9a146101e9578063664a1ad6146101fc5780638ed648501461022757806391d1485414610230575f5ffd5b80632f83a6bc116100ce5780632f83a6bc1461019357806336568abe146101ba5780634dbfe416146101cd5780635192c82c146101e0575f5ffd5b806301ffc9a7146100ff578063248a9ca314610127578063253123d7146101575780632f2ff15d1461017e575b5f5ffd5b61011261010d366004610659565b610277565b60405190151581526020015b60405180910390f35b610149610135366004610687565b5f9081526020819052604090206001015490565b60405190815260200161011e565b6101497f6eb7b5d79494977a37888770061a15887107ab7330d122990e924a580062e6e081565b61019161018c3660046106b9565b6102ad565b005b6101497f0b84ee281e5cf521a9ad54a86fafe78946b157177e231bd8ae785af4d3b3620f81565b6101916101c83660046106b9565b6102d7565b6101916101db366004610687565b61030f565b61014960025481565b6101916101f73660046106e3565b61039e565b60035461020f906001600160a01b031681565b6040516001600160a01b03909116815260200161011e565b61014960015481565b61011261023e3660046106b9565b610441565b610191610251366004610687565b610469565b6101495f81565b61019161026b3660046106b9565b6104f3565b61020f5f81565b5f6001600160e01b03198216637965db0b60e01b14806102a757506301ffc9a760e01b6001600160e01b03198316145b92915050565b5f828152602081905260409020600101546102c781610517565b6102d18383610524565b50505050565b6001600160a01b03811633146103005760405163334bd91960e11b815260040160405180910390fd5b61030a82826105b3565b505050565b7f6eb7b5d79494977a37888770061a15887107ab7330d122990e924a580062e6e061033981610517565b6127106002548361034a91906106fc565b11156103985760405162461bcd60e51b8152602060048201526018602482015277546f74616c20726174696f2065786365656473203130302560401b60448201526064015b60405180910390fd5b50600155565b7f0b84ee281e5cf521a9ad54a86fafe78946b157177e231bd8ae785af4d3b3620f6103c881610517565b6001600160a01b03821661041e5760405162461bcd60e51b815260206004820152601b60248201527f496e76616c69642066756e642077616c6c657420616464726573730000000000604482015260640161038f565b50600380546001600160a01b0319166001600160a01b0392909216919091179055565b5f918252602082815260408084206001600160a01b0393909316845291905290205460ff1690565b7f6eb7b5d79494977a37888770061a15887107ab7330d122990e924a580062e6e061049381610517565b612710826001546104a491906106fc565b11156104ed5760405162461bcd60e51b8152602060048201526018602482015277546f74616c20726174696f2065786365656473203130302560401b604482015260640161038f565b50600255565b5f8281526020819052604090206001015461050d81610517565b6102d183836105b3565b610521813361061c565b50565b5f61052f8383610441565b6105ac575f838152602081815260408083206001600160a01b03861684529091529020805460ff191660011790556105643390565b6001600160a01b0316826001600160a01b0316847f2f8788117e7eff1d82e926ec794901d17c78024a50270940304540a733656f0d60405160405180910390a45060016102a7565b505f6102a7565b5f6105be8383610441565b156105ac575f838152602081815260408083206001600160a01b0386168085529252808320805460ff1916905551339286917ff6391f5c32d9c69d2a47ea670b442974b53935d1edc7fd64eb21e047a839171b9190a45060016102a7565b6106268282610441565b6106555760405163e2517d3f60e01b81526001600160a01b03821660048201526024810183905260440161038f565b5050565b5f60208284031215610669575f5ffd5b81356001600160e01b031981168114610680575f5ffd5b9392505050565b5f60208284031215610697575f5ffd5b5035919050565b80356001600160a01b03811681146106b4575f5ffd5b919050565b5f5f604083850312156106ca575f5ffd5b823591506106da6020840161069e565b90509250929050565b5f602082840312156106f3575f5ffd5b6106808261069e565b808201808211156102a757634e487b7160e01b5f52601160045260245ffdfea26469706673582212207316a0c7eb5db9a7f1205aa3a81311025a6532996bd6a20c27a34b3c7de2467f64736f6c634300081c0033a2646970667358221220a7d7ac2ee7e70dc06c622d65a15d5b4ccd1e631c04cf12e377862cdf1b8c1aa164736f6c634300081c0033",
  "linkReferences": {},
  "deployedLinkReferences": {},
  "immutableReferences": {},
  "inputSourceName": "project/contracts/RouterFactory.sol",
  "buildInfoId": "solc-0_8_28-d9ff8f47c1281e39c5910faa5e18f642426c9cb9"
}