{
  "_format": "hh3-artifact-1",
  "contractName": "RouterFactory",
  "sourceName": "contracts/RouterFactory.sol",
  "abi": [
    {
      "inputs": [],
      "name": "Create2EmptyBytecode",
      "type": "error"
    },
    {
      "inputs": [],
      "name": "FailedDeployment",
      "type": "error"
    },
    {
      "inputs": [
        {
          "internalType": "uint256",
          "name": "balance",
          "type": "uint256"
        },
        {
          "internalType": "uint256",
          "name": "needed",
          "type": "uint256"
        }
      ],
      "name": "InsufficientBalance",
      "type": "error"
    },
    {
      "inputs": [
        {
          "internalType": "bytes32",
          "name": "_salt",
          "type": "bytes32"
        },
        {
          "internalType": "address",
          "name": "_initialAdmin",
          "type": "address"
        },
        {
          "internalType": "address",
          "name": "_forToken",
          "type": "address"
        },
        {
          "internalType": "address",
          "name": "_fundWallet",
          "type": "address"
        },
        {
          "internalType": "uint256",
          "name": "_fundRatio",
          "type": "uint256"
        },
        {
          "internalType": "uint256",
          "name": "_burnRatio",
          "type": "uint256"
        }
      ],
      "name": "computeAddress",
      "outputs": [
        {
          "internalType": "address",
          "name": "addr",
          "type": "address"
        }
      ],
      "stateMutability": "view",
      "type": "function"
    },
    {
      "inputs": [
        {
          "internalType": "bytes32",
          "name": "_salt",
          "type": "bytes32"
        },
        {
          "internalType": "address",
          "name": "_initialAdmin",
          "type": "address"
        },
        {
          "internalType": "address",
          "name": "_forToken",
          "type": "address"
        },
        {
          "internalType": "address",
          "name": "_fundWallet",
          "type": "address"
        },
        {
          "internalType": "uint256",
          "name": "_fundRatio",
          "type": "uint256"
        },
        {
          "internalType": "uint256",
          "name": "_burnRatio",
          "type": "uint256"
        }
      ],
      "name": "deploy",
      "outputs": [
        {
          "internalType": "address",
          "name": "addr",
          "type": "address"
        }
      ],
      "stateMutability": "nonpayable",
      "type": "function"
    }
  ],
  "bytecode": "0x6080604052348015600e575f5ffd5b506114df8061001c5f395ff3fe608060405234801561000f575f5ffd5b5060043610610034575f3560e01c80635342fa6d14610038578063accc0de914610067575b5f5ffd5b61004b6100463660046102a8565b61007a565b6040516001600160a01b03909116815260200160405180910390f35b61004b6100753660046102a8565b610114565b5f5f6040518060200161008c90610280565b601f1982820381018352601f9091011660408181526001600160a01b038a8116602084015289811682840152881660608301526080820187905260a08083018790528151808403909101815260c083019091526100ec929160e00161031a565b60405160208183030381529060405290506101085f89836101a8565b98975050505050505050565b5f5f6040518060200161012690610280565b601f1982820381018352601f9091011660408181526001600160a01b038a8116602084015289811682840152881660608301526080820187905260a08083018790528151808403909101815260c08301909152610186929160e00161031a565b6040516020818303038152906040529050610108888280519060200120610247565b5f834710156101d75760405163cf47918160e01b81524760048201526024810185905260440160405180910390fd5b81515f036101f857604051631328927760e21b815260040160405180910390fd5b8282516020840186f590503d151981151615610219576040513d5f823e3d81fd5b6001600160a01b0381166102405760405163b06ebf3d60e01b815260040160405180910390fd5b9392505050565b5f6102408383305f604051836040820152846020820152828152600b8101905060ff8153605590206001600160a01b0316949350505050565b6111738061033783390190565b80356001600160a01b03811681146102a3575f5ffd5b919050565b5f5f5f5f5f5f60c087890312156102bd575f5ffd5b863595506102cd6020880161028d565b94506102db6040880161028d565b93506102e96060880161028d565b9598949750929560808101359460a0909101359350915050565b5f81518060208401855e5f93019283525090919050565b5f61032e6103288386610303565b84610303565b94935050505056fe60a060405234801561000f575f5ffd5b5060405161117338038061117383398101604081905261002e91610242565b60016002556001600160a01b03851661008e5760405162461bcd60e51b815260206004820152601d60248201527f496e76616c696420696e697469616c2061646d696e206164647265737300000060448201526064015b60405180910390fd5b6001600160a01b0384166100e45760405162461bcd60e51b815260206004820152601560248201527f496e76616c696420746f6b656e206164647265737300000000000000000000006044820152606401610085565b6001600160a01b03848116608052600580546001600160a01b0319169185169190911790556003829055600481905561011d5f8661017e565b506101487f0b84ee281e5cf521a9ad54a86fafe78946b157177e231bd8ae785af4d3b3620f8661017e565b506101737f6eb7b5d79494977a37888770061a15887107ab7330d122990e924a580062e6e08661017e565b505050505050610294565b5f828152602081815260408083206001600160a01b038516845290915281205460ff1661021e575f838152602081815260408083206001600160a01b03861684529091529020805460ff191660011790556101d63390565b6001600160a01b0316826001600160a01b0316847f2f8788117e7eff1d82e926ec794901d17c78024a50270940304540a733656f0d60405160405180910390a4506001610221565b505f5b92915050565b80516001600160a01b038116811461023d575f5ffd5b919050565b5f5f5f5f5f60a08688031215610256575f5ffd5b61025f86610227565b945061026d60208701610227565b935061027b60408701610227565b6060870151608090970151959894975095949392505050565b608051610eb96102ba5f395f81816102c7015281816105f601526106a30152610eb95ff3fe608060405234801561000f575f5ffd5b5060043610610132575f3560e01c80635c975abb116100b457806391d148541161007957806391d14854146102955780639370131f146102a8578063a217fddf146102bb578063d32482c3146102c2578063d547741f146102e9578063fccc2813146102fc575f5ffd5b80635c975abb1461023b578063605629d614610246578063664a1ad6146102595780638456cb59146102845780638ed648501461028c575f5ffd5b806336568abe116100fa57806336568abe146101f15780633f4ba83a146102045780634dbfe4161461020c5780635192c82c1461021f57806355ce3b9a14610228575f5ffd5b806301ffc9a714610136578063248a9ca31461015e578063253123d71461018e5780632f2ff15d146101b55780632f83a6bc146101ca575b5f5ffd5b610149610144366004610ce4565b610305565b60405190151581526020015b60405180910390f35b61018061016c366004610d12565b5f9081526020819052604090206001015490565b604051908152602001610155565b6101807f6eb7b5d79494977a37888770061a15887107ab7330d122990e924a580062e6e081565b6101c86101c3366004610d44565b61033b565b005b6101807f0b84ee281e5cf521a9ad54a86fafe78946b157177e231bd8ae785af4d3b3620f81565b6101c86101ff366004610d44565b610365565b6101c861039d565b6101c861021a366004610d12565b6103b2565b61018060045481565b6101c8610236366004610d6e565b6104aa565b60015460ff16610149565b6101c8610254366004610d87565b610555565b60055461026c906001600160a01b031681565b6040516001600160a01b039091168152602001610155565b6101c8610983565b61018060035481565b6101496102a3366004610d44565b610995565b6101c86102b6366004610d12565b6109bd565b6101805f81565b61026c7f000000000000000000000000000000000000000000000000000000000000000081565b6101c86102f7366004610d44565b610a83565b61026c61dead81565b5f6001600160e01b03198216637965db0b60e01b148061033557506301ffc9a760e01b6001600160e01b03198316145b92915050565b5f8281526020819052604090206001015461035581610aa7565b61035f8383610ab1565b50505050565b6001600160a01b038116331461038e5760405163334bd91960e11b815260040160405180910390fd5b6103988282610b40565b505050565b5f6103a781610aa7565b6103af610ba9565b50565b7f6eb7b5d79494977a37888770061a15887107ab7330d122990e924a580062e6e06103dc81610aa7565b6103e4610bfb565b612710600454836103f59190610e08565b11156104435760405162461bcd60e51b8152602060048201526018602482015277546f74616c20726174696f2065786365656473203130302560401b60448201526064015b60405180910390fd5b600382905560045433907fb55f79fe5ce919308890d69197336bfe5e7ec459de785951879b018086e8ce999084908061047e83612710610e1b565b6104889190610e1b565b6040805193845260208401929092529082015260600160405180910390a25050565b7f0b84ee281e5cf521a9ad54a86fafe78946b157177e231bd8ae785af4d3b3620f6104d481610aa7565b6104dc610bfb565b6001600160a01b0382166105325760405162461bcd60e51b815260206004820152601b60248201527f496e76616c69642066756e642077616c6c657420616464726573730000000000604482015260640161043a565b50600580546001600160a01b0319166001600160a01b0392909216919091179055565b61055d610bfb565b610565610c21565b845f036105855760405163162908e360e11b815260040160405180910390fd5b6001600160a01b0386166105ac57604051634e46966960e11b815260040160405180910390fd5b60405163d505accf60e01b81526001600160a01b038881166004830152306024830152604482018790526064820186905260ff8516608483015260a4820184905260c482018390527f0000000000000000000000000000000000000000000000000000000000000000169063d505accf9060e4015f604051808303815f87803b158015610637575f5ffd5b505af1158015610649573d5f5f3e3d5ffd5b505050505f6127106003548761065f9190610e2e565b6106699190610e45565b90505f6127106004548861067d9190610e2e565b6106879190610e45565b90505f81610695848a610e1b565b61069f9190610e1b565b90507f00000000000000000000000000000000000000000000000000000000000000008315610787576005546040516323b872dd60e01b81526001600160a01b038d81166004830152918216602482015260448101869052908216906323b872dd906064016020604051808303815f875af1158015610720573d5f5f3e3d5ffd5b505050506040513d601f19601f820116820180604052508101906107449190610e64565b6107875760405162461bcd60e51b8152602060048201526014602482015273119d5b99081d1c985b9cd9995c8819985a5b195960621b604482015260640161043a565b8215610848576040516323b872dd60e01b81526001600160a01b038c8116600483015261dead6024830152604482018590528216906323b872dd906064016020604051808303815f875af11580156107e1573d5f5f3e3d5ffd5b505050506040513d601f19601f820116820180604052508101906108059190610e64565b6108485760405162461bcd60e51b8152602060048201526014602482015273109d5c9b881d1c985b9cd9995c8819985a5b195960621b604482015260640161043a565b8115610912576040516323b872dd60e01b81526001600160a01b038c811660048301528b81166024830152604482018490528216906323b872dd906064016020604051808303815f875af11580156108a2573d5f5f3e3d5ffd5b505050506040513d601f19601f820116820180604052508101906108c69190610e64565b6109125760405162461bcd60e51b815260206004820152601960248201527f526563697069656e74207472616e73666572206661696c656400000000000000604482015260640161043a565b604080518a815260208101869052908101849052606081018390526001600160a01b03808c1691908d169033907f52f83311e33f533cde58953dc7f433120e12462be7e4b5f2a32c97291fa09a029060800160405180910390a45050505061097a6001600255565b50505050505050565b5f61098d81610aa7565b6103af610c49565b5f918252602082815260408084206001600160a01b0393909316845291905290205460ff1690565b7f6eb7b5d79494977a37888770061a15887107ab7330d122990e924a580062e6e06109e781610aa7565b6109ef610bfb565b61271082600354610a009190610e08565b1115610a495760405162461bcd60e51b8152602060048201526018602482015277546f74616c20726174696f2065786365656473203130302560401b604482015260640161043a565b600482905560035433907fb55f79fe5ce919308890d69197336bfe5e7ec459de785951879b018086e8ce9990848061047e83612710610e1b565b5f82815260208190526040902060010154610a9d81610aa7565b61035f8383610b40565b6103af8133610c84565b5f610abc8383610995565b610b39575f838152602081815260408083206001600160a01b03861684529091529020805460ff19166001179055610af13390565b6001600160a01b0316826001600160a01b0316847f2f8788117e7eff1d82e926ec794901d17c78024a50270940304540a733656f0d60405160405180910390a4506001610335565b505f610335565b5f610b4b8383610995565b15610b39575f838152602081815260408083206001600160a01b0386168085529252808320805460ff1916905551339286917ff6391f5c32d9c69d2a47ea670b442974b53935d1edc7fd64eb21e047a839171b9190a4506001610335565b610bb1610cc1565b6001805460ff191690557f5db9ee0a495bf2e6ff9c91a7834c1ba4fdd244a5e8aa4e537bd38aeae4b073aa335b6040516001600160a01b03909116815260200160405180910390a1565b60015460ff1615610c1f5760405163d93c066560e01b815260040160405180910390fd5b565b6002805403610c4357604051633ee5aeb560e01b815260040160405180910390fd5b60028055565b610c51610bfb565b6001805460ff1916811790557f62e78cea01bee320cd4e420270b5ea74000d11b0c9f74754ebdbfc544b05a25833610bde565b610c8e8282610995565b610cbd5760405163e2517d3f60e01b81526001600160a01b03821660048201526024810183905260440161043a565b5050565b60015460ff16610c1f57604051638dfc202b60e01b815260040160405180910390fd5b5f60208284031215610cf4575f5ffd5b81356001600160e01b031981168114610d0b575f5ffd5b9392505050565b5f60208284031215610d22575f5ffd5b5035919050565b80356001600160a01b0381168114610d3f575f5ffd5b919050565b5f5f60408385031215610d55575f5ffd5b82359150610d6560208401610d29565b90509250929050565b5f60208284031215610d7e575f5ffd5b610d0b82610d29565b5f5f5f5f5f5f5f60e0888a031215610d9d575f5ffd5b610da688610d29565b9650610db460208901610d29565b95506040880135945060608801359350608088013560ff81168114610dd7575f5ffd5b9699959850939692959460a0840135945060c09093013592915050565b634e487b7160e01b5f52601160045260245ffd5b8082018082111561033557610335610df4565b8181038181111561033557610335610df4565b808202811582820484141761033557610335610df4565b5f82610e5f57634e487b7160e01b5f52601260045260245ffd5b500490565b5f60208284031215610e74575f5ffd5b81518015158114610d0b575f5ffdfea2646970667358221220c1a3aa255a24522bf769c5a901f4208f5b481bf1e34da744c9127d4931fbfa0064736f6c634300081c0033a26469706673582212208cc41a9f27e6ba70a82853079221217d781cf51ddc55d6f3b240df1ef94b5b7564736f6c634300081c0033",
  "linkReferences": {},
  "deployedLinkReferences": {},
  "immutableReferences": {},
  "inputSourceName": "project/contracts/RouterFactory.sol",
  "buildInfoId": "solc-0_8_28-5c8fdc318c3f0104ec4be3938796fca8ed4a8b34"
}